{
  "_format": "hh-sol-artifact-1",
  "contractName": "FHETendering",
  "sourceName": "contracts/TenderingFHE.sol",
  "abi": [
    {
      "inputs": [],
      "name": "HandlesAlreadySavedForRequestID",
      "type": "error"
    },
    {
      "inputs": [],
      "name": "InvalidKMSSignatures",
      "type": "error"
    },
    {
      "inputs": [],
      "name": "NoHandleFoundForRequestID",
      "type": "error"
    },
    {
      "anonymous": false,
      "inputs": [
        {
          "indexed": true,
          "internalType": "uint256",
          "name": "requestID",
          "type": "uint256"
        }
      ],
      "name": "DecryptionFulfilled",
      "type": "event"
    },
    {
      "anonymous": false,
      "inputs": [
        {
          "indexed": true,
          "internalType": "uint256",
          "name": "projectId",
          "type": "uint256"
        },
        {
          "indexed": true,
          "internalType": "address",
          "name": "bidder",
          "type": "address"
        }
      ],
      "name": "EncryptedBidPlaced",
      "type": "event"
    },
    {
      "anonymous": false,
      "inputs": [
        {
          "indexed": true,
          "internalType": "uint256",
          "name": "projectId",
          "type": "uint256"
        },
        {
          "indexed": true,
          "internalType": "address",
          "name": "creator",
          "type": "address"
        },
        {
          "indexed": false,
          "internalType": "uint256",
          "name": "deadline",
          "type": "uint256"
        }
      ],
      "name": "ProjectCreated",
      "type": "event"
    },
    {
      "anonymous": false,
      "inputs": [
        {
          "indexed": true,
          "internalType": "uint256",
          "name": "projectId",
          "type": "uint256"
        },
        {
          "indexed": true,
          "internalType": "address",
          "name": "terminator",
          "type": "address"
        }
      ],
      "name": "ProjectTerminated",
      "type": "event"
    },
    {
      "anonymous": false,
      "inputs": [
        {
          "indexed": true,
          "internalType": "uint256",
          "name": "projectId",
          "type": "uint256"
        },
        {
          "indexed": false,
          "internalType": "address",
          "name": "winner",
          "type": "address"
        },
        {
          "indexed": false,
          "internalType": "uint32",
          "name": "lowestBidPlain",
          "type": "uint32"
        },
        {
          "indexed": false,
          "internalType": "uint32",
          "name": "highestBidPlain",
          "type": "uint32"
        },
        {
          "indexed": false,
          "internalType": "uint32",
          "name": "averageBidPlain",
          "type": "uint32"
        },
        {
          "indexed": false,
          "internalType": "uint256",
          "name": "numParticipants",
          "type": "uint256"
        }
      ],
      "name": "WinnerDeclared",
      "type": "event"
    },
    {
      "inputs": [
        {
          "internalType": "uint256",
          "name": "requestId",
          "type": "uint256"
        },
        {
          "internalType": "bytes",
          "name": "cleartexts",
          "type": "bytes"
        },
        {
          "internalType": "bytes",
          "name": "proof",
          "type": "bytes"
        }
      ],
      "name": "callbackDeclareWinner",
      "outputs": [],
      "stateMutability": "nonpayable",
      "type": "function"
    },
    {
      "inputs": [
        {
          "internalType": "string",
          "name": "_title",
          "type": "string"
        },
        {
          "internalType": "string",
          "name": "_description",
          "type": "string"
        },
        {
          "internalType": "uint256",
          "name": "_deadline",
          "type": "uint256"
        }
      ],
      "name": "createProject",
      "outputs": [
        {
          "internalType": "uint256",
          "name": "projectId",
          "type": "uint256"
        }
      ],
      "stateMutability": "nonpayable",
      "type": "function"
    },
    {
      "inputs": [
        {
          "internalType": "uint256",
          "name": "projectId",
          "type": "uint256"
        }
      ],
      "name": "declareWinner",
      "outputs": [],
      "stateMutability": "nonpayable",
      "type": "function"
    },
    {
      "inputs": [
        {
          "internalType": "uint256",
          "name": "projectId",
          "type": "uint256"
        }
      ],
      "name": "getPlainStats",
      "outputs": [
        {
          "internalType": "uint256",
          "name": "numParticipants",
          "type": "uint256"
        },
        {
          "internalType": "uint32",
          "name": "averageBid",
          "type": "uint32"
        },
        {
          "internalType": "uint32",
          "name": "highestBid",
          "type": "uint32"
        },
        {
          "internalType": "uint32",
          "name": "lowestBid",
          "type": "uint32"
        },
        {
          "internalType": "address",
          "name": "winnerAddr",
          "type": "address"
        }
      ],
      "stateMutability": "view",
      "type": "function"
    },
    {
      "inputs": [],
      "name": "nextProjectId",
      "outputs": [
        {
          "internalType": "uint256",
          "name": "",
          "type": "uint256"
        }
      ],
      "stateMutability": "view",
      "type": "function"
    },
    {
      "inputs": [
        {
          "internalType": "uint256",
          "name": "projectId",
          "type": "uint256"
        },
        {
          "internalType": "externalEuint32",
          "name": "encInput",
          "type": "bytes32"
        },
        {
          "internalType": "bytes",
          "name": "inputProof",
          "type": "bytes"
        }
      ],
      "name": "placeEncryptedBid",
      "outputs": [],
      "stateMutability": "nonpayable",
      "type": "function"
    },
    {
      "inputs": [
        {
          "internalType": "uint256",
          "name": "",
          "type": "uint256"
        },
        {
          "internalType": "uint256",
          "name": "",
          "type": "uint256"
        }
      ],
      "name": "projectBids",
      "outputs": [
        {
          "internalType": "address",
          "name": "bidder",
          "type": "address"
        },
        {
          "internalType": "euint32",
          "name": "amount",
          "type": "bytes32"
        }
      ],
      "stateMutability": "view",
      "type": "function"
    },
    {
      "inputs": [
        {
          "internalType": "uint256",
          "name": "",
          "type": "uint256"
        }
      ],
      "name": "projects",
      "outputs": [
        {
          "internalType": "address",
          "name": "creator",
          "type": "address"
        },
        {
          "internalType": "string",
          "name": "title",
          "type": "string"
        },
        {
          "internalType": "string",
          "name": "description",
          "type": "string"
        },
        {
          "internalType": "uint256",
          "name": "deadline",
          "type": "uint256"
        },
        {
          "internalType": "bool",
          "name": "terminated",
          "type": "bool"
        },
        {
          "internalType": "bool",
          "name": "decryptionPending",
          "type": "bool"
        },
        {
          "internalType": "bool",
          "name": "winnerDeclared",
          "type": "bool"
        },
        {
          "internalType": "euint32",
          "name": "lowestBidEncrypted",
          "type": "bytes32"
        },
        {
          "internalType": "euint32",
          "name": "highestBidEncrypted",
          "type": "bytes32"
        },
        {
          "internalType": "euint32",
          "name": "sumBidsEncrypted",
          "type": "bytes32"
        },
        {
          "internalType": "uint32",
          "name": "lowestBidPlain",
          "type": "uint32"
        },
        {
          "internalType": "uint32",
          "name": "highestBidPlain",
          "type": "uint32"
        },
        {
          "internalType": "uint32",
          "name": "averageBidPlain",
          "type": "uint32"
        },
        {
          "internalType": "uint256",
          "name": "numBids",
          "type": "uint256"
        },
        {
          "internalType": "address",
          "name": "winner",
          "type": "address"
        }
      ],
      "stateMutability": "view",
      "type": "function"
    },
    {
      "inputs": [],
      "name": "protocolId",
      "outputs": [
        {
          "internalType": "uint256",
          "name": "",
          "type": "uint256"
        }
      ],
      "stateMutability": "pure",
      "type": "function"
    },
    {
      "inputs": [
        {
          "internalType": "uint256",
          "name": "projectId",
          "type": "uint256"
        }
      ],
      "name": "terminateProject",
      "outputs": [],
      "stateMutability": "nonpayable",
      "type": "function"
    }
  ],
  "bytecode": "0x608060405234610154575f6060610014610158565b828152826020820152826040820152015261002d610158565b606073687820221192c5b662b25367f70076a37bc79b6c9182815273848b0066793bcc60346da1f49049357399b8d59580602083015273a02cda4ca3a71d7c46997716f4283aa851c2881291826040820152731364cbbf2cdf5032c47d8226a6f6fbd2afcdacac938491015260018060a01b0319937f9e7b61f58c47dc699ac88507c4f5bb9f121c03808c5676a8078fe583e464970090858254161790557f9e7b61f58c47dc699ac88507c4f5bb9f121c03808c5676a8078fe583e464970190848254161790557f9e7b61f58c47dc699ac88507c4f5bb9f121c03808c5676a8078fe583e464970290838254161790557f9e7b61f58c47dc699ac88507c4f5bb9f121c03808c5676a8078fe583e464970391825416179055604051611d47908161018c8239f35b5f80fd5b60405190608082016001600160401b0381118382101761017757604052565b634e487b7160e01b5f52604160045260245ffdfe60806040526004361015610011575f80fd5b5f803560e01c8062c2943c146114f4578063107046bd146113e3578063184807401461132357806323c5544814610f4b5780633ee658aa14610e415780634862ce4714610ded5780637df958d114610689578063b1a99689146100c3578063da1f12ab146100a65763e935b7b114610087575f80fd5b346100a357806003193601126100a35760209054604051908152f35b80fd5b50346100a357806003193601126100a35760206040516127118152f35b50346100a35760603660031901126100a35760243567ffffffffffffffff8111610685576100f5903690600401611709565b60443567ffffffffffffffff811161068157610115903690600401611709565b9060043583526003602052604083205490811561063c57815f19810111610628575f19820184526001602052604084209060ff600483015460081c16156105e35760043585527f878245876662ba28a480c5ea71726db859fb50222b0a3d7cbbc21cfa336faf01806020526040862054156105d157600435865260205260408520936040518086602082985493848152019089526020892092895b8181106105b85750506101c59250038661155e565b81519081602001806020116105a45760408301106105905761028191602091610215604080518094828951610200818c8b8088019101611622565b8301910187820152038581018552018361155e565b61026f896001600160a01b03996102938b7f9e7b61f58c47dc699ac88507c4f5bb9f121c03808c5676a8078fe583e4649703541694604051988997889687956378542ead60e01b8752606060048801526064870190611c77565b85810360031901602487015290611643565b83810360031901604485015290611643565b03925af190811561058557869161054a575b5015610538576004357f1af0453083661051f6e56e5c070792320652e612154bf9af8637bb1e7655b99d8680a280518101906020818184019303126105305760208101519067ffffffffffffffff821161053457019080603f830112156105305760208201519061031582611727565b92610323604051948561155e565b8284526040602085019360051b82010191821161052c57604001915b81831061050b5750505080519163ffffffff948691878894895b87811061049b57505085156104925763ffffffff861690811561047e5763ffffffff16049382905b600883019863ffffffff169880548a8860401b6bffffffff000000000000000016916bffffffffffffffffffffffff1916178760201b67ffffffff0000000016171790555f1988018a52600260205260408a20906103de91611696565b50541690600a810191825473ffffffffffffffffffffffffffffffffffffffff191617825562ffff00196004820154166201000017906004015560043588526003602052604088205f9055541694604051958652602086015263ffffffff16604085015263ffffffff16606084015260808301525f19019060a07f6fc837fb2273e53692b69ee5634545baa8073a9f1b937b57fc2296424c63b22591a280f35b634e487b7160e01b8a52601260045260248afd5b50818894610381565b63ffffffff92836104ac838561173f565b51169316830163ffffffff81116104f7579263ffffffff8b1681106104ec575b63ffffffff871681116104e3575b50600101610359565b955060016104da565b9950955085896104cc565b634e487b7160e01b8c52601160045260248cfd5b825163ffffffff811681036105285781526020928301920161033f565b8880fd5b8780fd5b8580fd5b8680fd5b60405163cf6c44e960e01b8152600490fd5b90506020813d60201161057d575b816105656020938361155e565b8101031261053057518015158103610530575f6102a5565b3d9150610558565b6040513d88823e3d90fd5b634e487b7160e01b87526011600452602487fd5b634e487b7160e01b88526011600452602488fd5b845483526001948501948a9450602090930192016101b0565b60405163d66ca67560e01b8152600490fd5b60405162461bcd60e51b815260206004820152600a60248201527f4e6f2070656e64696e67000000000000000000000000000000000000000000006044820152606490fd5b634e487b7160e01b84526011600452602484fd5b60405162461bcd60e51b815260206004820152600f60248201527f556e6b6e6f776e207265717565737400000000000000000000000000000000006044820152606490fd5b8280fd5b5080fd5b5034610b85576060366003190112610b8557600435602467ffffffffffffffff604435818111610b85576106c1903690600401611668565b9190845f52600160205260405f2092600484015460ff8116610da9576003850154421015610d655761070d5f95949360209361070660ff6107699560101c1615611bba565b36916116c3565b6001600160a01b037f9e7b61f58c47dc699ac88507c4f5bb9f121c03808c5676a8078fe583e464970154169060405196878094819363196d0b9b60e01b83528b356004840152338c840152608060448401526084830190611643565b6004606483015203925af1928315610d26575f93610d31575b506001600160a01b037f9e7b61f58c47dc699ac88507c4f5bb9f121c03808c5676a8078fe583e46497005416803b15610b8557604051630f8e573b60e21b815260048101859052336024820152905f908290604490829084905af18015610d2657610d13575b5084865260026020526040862060405191604083019083821090821117610d0057604052338252602082019084825280549068010000000000000000821015610ced579061083b91600182018155611696565b929092610cda57906001600160a01b03600192511673ffffffffffffffffffffffffffffffffffffffff19845416178355519101556009810161087e8154611b98565b90556108fd6020866007840154858115610cca575b8615610cbc575b826001600160a01b037f9e7b61f58c47dc699ac88507c4f5bb9f121c03808c5676a8078fe583e46497015416926040519687958694859363022f65e760e31b8552600485019192604091949360608401958452602084015260ff60f81b16910152565b03925af1908115610585578691610c8a575b506007820155610993602086600584015485908615610c7a575b8015610c6c575b826001600160a01b037f9e7b61f58c47dc699ac88507c4f5bb9f121c03808c5676a8078fe583e464970154169260405196879586948593637210768160e01b8552600485019192604091949360608401958452602084015260ff60f81b16910152565b03925af1908115610585578691610c3a575b50856020600584015460646001600160a01b037f9e7b61f58c47dc699ac88507c4f5bb9f121c03808c5676a8078fe583e46497015416916040519485938492637702dcff60e01b9889855260048501528a8c85015260448401525af1908115610c2f578791610bfd575b506005830155610a96866006840194602082875483908415610bed575b8015610bdf575b826001600160a01b037f9e7b61f58c47dc699ac88507c4f5bb9f121c03808c5676a8078fe583e4649701541692604051988995869485936385362ee760e01b8552600485019192604091949360608401958452602084015260ff60f81b16910152565b03925af1928315610bd4578293610b9c575b509260649160209487546001600160a01b037f9e7b61f58c47dc699ac88507c4f5bb9f121c03808c5676a8078fe583e46497015416916040519a8b9788968752600487015285015260448401525af1928315610b91578593610b58575b506005610b2791610b2e948455610b1f6007820154611c06565b500154611c06565b5054611c06565b5033907f7638bb826bce03466c6b8e0c9d6f107bf87c429b2fc1dfe06efc2a1597eb7c108380a380f35b92506020833d602011610b89575b81610b736020938361155e565b81010312610b85579151916005610b05565b5f80fd5b3d9150610b66565b6040513d87823e3d90fd5b915091506020813d602011610bcc575b81610bb96020938361155e565b81010312610b8557519087906064610aa8565b3d9150610bac565b6040513d84823e3d90fd5b50610be8611caa565b610a33565b9050610bf7611caa565b90610a2c565b90506020813d602011610c27575b81610c186020938361155e565b81010312610b8557515f610a0f565b3d9150610c0b565b6040513d89823e3d90fd5b90506020813d602011610c64575b81610c556020938361155e565b81010312610b8557515f6109a5565b3d9150610c48565b50610c75611caa565b610930565b9050610c84611caa565b90610929565b90506020813d602011610cb4575b81610ca56020938361155e565b81010312610b8557515f61090f565b3d9150610c98565b50610cc5611caa565b61089a565b9050610cd4611caa565b90610893565b634e487b7160e01b885260048890528588fd5b634e487b7160e01b895260416004528689fd5b85634e487b7160e01b5f5260416004525ffd5b610d1e91965061154a565b5f945f6107e8565b6040513d5f823e3d90fd5b9092506020813d602011610d5d575b81610d4d6020938361155e565b81010312610b855751915f610782565b3d9150610d40565b60405162461bcd60e51b815260206004820152600f818801527f446561646c696e652070617373656400000000000000000000000000000000006044820152606490fd5b60405162461bcd60e51b815260206004820152600a818801527f5465726d696e61746564000000000000000000000000000000000000000000006044820152606490fd5b34610b85576040366003190112610b85576024356004355f52600260205260405f208054821015610b8557604091610e2491611696565b5060016001600160a01b0382541691015482519182526020820152f35b34610b85576020366003190112610b8557600435805f52600160205260405f206001600160a01b038154163303610f0657600401805460ff8116610ec15780610e9260ff60019360101c1615611bba565b60ff191617905533907f8fd34c65c4eb67a03e1a400199cf3aa80493f21fba2644191a9c106b1be191325f80a3005b60405162461bcd60e51b815260206004820152601260248201527f416c7265616479207465726d696e6174656400000000000000000000000000006044820152606490fd5b60405162461bcd60e51b815260206004820152600c60248201527f4f6e6c792063726561746f7200000000000000000000000000000000000000006044820152606490fd5b34610b85576060366003190112610b855767ffffffffffffffff600435818111610b8557610f7d903690600401611668565b602492919235828111610b8557610f98903690600401611668565b92904260443511156112de575f5493610fb085611b98565b5f55845f5260019160209683885260405f20953373ffffffffffffffffffffffffffffffffffffffff198854161787558487019186821161120e578190610ff78454611512565b601f811161128e575b505f90601f831160011461122d575f92611222575b50505f19600383901b1c191690851b1790555b6002850193821161120e5761103d8454611512565b601f81116111c8575b505f90601f8311600114611169579282939183925f9461115e575b50501b915f199060031b1c19161790555b6044356003820155611082611caa565b60078201555f836001600160a01b037f9e7b61f58c47dc699ac88507c4f5bb9f121c03808c5676a8078fe583e46497015416604460405180948193639cd07acb60e01b835263ffffffff6004840152600460248401525af1908115610d26575f91611131575b50600582015560066110f8611caa565b9101556040516044358152817f1b9d0946c0a6f3b3a57782ad25a4553bd5bcf1f1a252068eafc757670aad573a843393a3604051908152f35b90508381813d8311611157575b611148818361155e565b81010312610b855751846110e8565b503d61113e565b013592508880611061565b601f19831691855f5283895f20935f5b8b888383106111b15750505010611198575b505050811b019055611072565b01355f19600384901b60f8161c1916905586808061118b565b858701358855909601959384019387935001611179565b845f52875f20601f840160051c810191898510611204575b601f0160051c019084905b8281106111f9575050611046565b5f81550184906111eb565b90915081906111e0565b634e487b7160e01b5f52604160045260245ffd5b013590508a80611015565b5f8581528c81208995509290601f198516908e5b828210611277575050841161125e575b505050811b019055611028565b01355f19600384901b60f8161c191690558a8080611251565b8385013586558b979095019492830192018e611241565b909150835f528a5f20601f840160051c8101918c85106112d4575b84939291601f8a920160051c01915b8281106112c6575050611000565b5f81558594508991016112b8565b90915081906112a9565b60405162461bcd60e51b815260206004820152601760248201527f446561646c696e65206d757374206265206675747572650000000000000000006044820152606490fd5b34610b85576020366003190112610b85576004355f52600160205260405f2060ff600482015460101c161561139e5780600960a0920154906008810154906001600160a01b03600a63ffffffff9201541691604051938452818160401c166020850152818160201c1660408501521660608301526080820152f35b60405162461bcd60e51b815260206004820152600960248201527f4e6f7420726561647900000000000000000000000000000000000000000000006044820152606490fd5b34610b85576020366003190112610b85576004355f52600160205260405f206001600160a01b03808254169061141b60018401611580565b9261142860028201611580565b9060038101549260048201546005830154600684015460078501549160ff60088701549461148c63ffffffff97600a60098b01549a0154169961147e6040519e8f9e8f6101e09181528160208201520190611643565b8d810360408f015290611643565b9960608c0152818116151560808c0152818160081c16151560a08c015260101c16151560c08a015260e0890152610100880152610120870152818116610140870152818160201c1661016087015260401c166101808501526101a08401526101c08301520390f35b34610b85576020366003190112610b8557611510600435611753565b005b90600182811c92168015611540575b602083101461152c57565b634e487b7160e01b5f52602260045260245ffd5b91607f1691611521565b67ffffffffffffffff811161120e57604052565b90601f8019910116810190811067ffffffffffffffff82111761120e57604052565b9060405191825f825461159281611512565b908184526020946001916001811690815f1461160057506001146115c2575b5050506115c09250038361155e565b565b5f90815285812095935091905b8183106115e85750506115c093508201015f80806115b1565b855488840185015294850194879450918301916115cf565b925050506115c094925060ff191682840152151560051b8201015f80806115b1565b5f5b8381106116335750505f910152565b8181015183820152602001611624565b9060209161165c81518092818552858086019101611622565b601f01601f1916010190565b9181601f84011215610b855782359167ffffffffffffffff8311610b855760208381860195010111610b8557565b80548210156116af575f5260205f209060011b01905f90565b634e487b7160e01b5f52603260045260245ffd5b92919267ffffffffffffffff821161120e57604051916116ed601f8201601f19166020018461155e565b829481845281830111610b85578281602093845f960137010152565b9080601f83011215610b8557816020611724933591016116c3565b90565b67ffffffffffffffff811161120e5760051b60200190565b80518210156116af5760209160051b010190565b5f90805f52600191602090838252604091825f2060048082019687549260ff8460101c16611b555760ff8416908115611b46575b5015611b035760ff8360081c16611ac057865f526002808552865f2054938415611a6557506117b584611727565b936117c28851958661155e565b8085526117ce81611727565b8587019290601f1901368437835f5b838110611a3c57505050507f878245876662ba28a480c5ea71726db859fb50222b0a3d7cbbc21cfa336faf00908154946001600160a01b03807f9e7b61f58c47dc699ac88507c4f5bb9f121c03808c5676a8078fe583e46497005416803b15610b85575f8b518092637d6e912360e11b82528b8a830152818381611864602482018a611c77565b03925af18015611a3257611a1f575b507f9e7b61f58c47dc699ac88507c4f5bb9f121c03808c5676a8078fe583e46497025416803b1561052857888a518092633263b83b60e01b82528989830152606060248301528183816118c96064820189611c77565b63b1a9968960e01b604483015203925af18015611a1557908991611a01575b508690527f878245876662ba28a480c5ea71726db859fb50222b0a3d7cbbc21cfa336faf01808852898920546119f157868952875288882090519167ffffffffffffffff83116119de576801000000000000000083116119de5781548383558084106119b7575b5090885286882084895b8481106119a557505050505061196f8154611b98565b9055860180961161199257508252600390522055805461ff001916610100179055565b634e487b7160e01b845260119052602483fd5b89845194019381840155018590611959565b828a5285848a8c2092830192015b8281106119d357505061194f565b5f81550186906119c5565b634e487b7160e01b895260418652602489fd5b8951633f06d22b60e01b81528690fd5b611a0a9061154a565b61052c57875f6118e8565b8a513d8b823e3d90fd5b611a2a91995061154a565b5f975f611873565b8b513d5f823e3d90fd5b8b5f5282895281611a4f828d5f20611696565b500154611a5c828a61173f565b520184906117dd565b62ff000019166201000017909855505083515f80825292810183905293840182905250606083018190526080830152509091507f6fc837fb2273e53692b69ee5634545baa8073a9f1b937b57fc2296424c63b2259060a090a2565b855162461bcd60e51b8152808301859052601260248201527f44656372797074696f6e2072756e6e696e6700000000000000000000000000006044820152606490fd5b855162461bcd60e51b8152808301859052600c60248201527f4e6f742066696e697368656400000000000000000000000000000000000000006044820152606490fd5b6003915001544210155f611787565b865162461bcd60e51b8152808401869052601060248201527f416c7265616479206465636c61726564000000000000000000000000000000006044820152606490fd5b5f198114611ba65760010190565b634e487b7160e01b5f52601160045260245ffd5b15611bc157565b60405162461bcd60e51b815260206004820152600f60248201527f57696e6e6572206465636c6172656400000000000000000000000000000000006044820152606490fd5b6001600160a01b037f9e7b61f58c47dc699ac88507c4f5bb9f121c03808c5676a8078fe583e46497005416803b15610b8557604051635ca4b5b160e11b815260048101839052306024820152905f908290604490829084905af18015610d2657611c6e575090565b6117249061154a565b9081518082526020808093019301915f5b828110611c96575050505090565b835185529381019392810192600101611c88565b5f60206001600160a01b037f9e7b61f58c47dc699ac88507c4f5bb9f121c03808c5676a8078fe583e46497015416604460405180948193639cd07acb60e01b8352816004840152600460248401525af1908115610d26575f91611d0b575090565b90506020813d602011611d32575b81611d266020938361155e565b81010312610b85575190565b3d9150611d1956fea164736f6c6343000818000a",
  "linkReferences": {},
  "deployedLinkReferences": {}
}